{
  "contractName": "EmailStorage",
  "abi": [
    {
      "anonymous": false,
      "inputs": [
        {
          "indexed": true,
          "internalType": "uint256",
          "name": "id",
          "type": "uint256"
        },
        {
          "indexed": true,
          "internalType": "string",
          "name": "sentMail",
          "type": "string"
        },
        {
          "indexed": true,
          "internalType": "string",
          "name": "receivedMail",
          "type": "string"
        },
        {
          "indexed": false,
          "internalType": "string",
          "name": "subject",
          "type": "string"
        },
        {
          "indexed": false,
          "internalType": "string",
          "name": "mailDataIPFSHash",
          "type": "string"
        },
        {
          "indexed": false,
          "internalType": "string",
          "name": "time",
          "type": "string"
        }
      ],
      "name": "EmailSent",
      "type": "event"
    },
    {
      "inputs": [],
      "name": "emailCount",
      "outputs": [
        {
          "internalType": "uint256",
          "name": "",
          "type": "uint256"
        }
      ],
      "stateMutability": "view",
      "type": "function",
      "constant": true
    },
    {
      "inputs": [
        {
          "internalType": "uint256",
          "name": "",
          "type": "uint256"
        }
      ],
      "name": "emails",
      "outputs": [
        {
          "internalType": "string",
          "name": "sentMail",
          "type": "string"
        },
        {
          "internalType": "string",
          "name": "receivedMail",
          "type": "string"
        },
        {
          "internalType": "string",
          "name": "subject",
          "type": "string"
        },
        {
          "internalType": "string",
          "name": "mailDataIPFSHash",
          "type": "string"
        },
        {
          "internalType": "string",
          "name": "time",
          "type": "string"
        }
      ],
      "stateMutability": "view",
      "type": "function",
      "constant": true
    },
    {
      "inputs": [
        {
          "internalType": "string",
          "name": "_sentMail",
          "type": "string"
        },
        {
          "internalType": "string",
          "name": "_receivedMail",
          "type": "string"
        },
        {
          "internalType": "string",
          "name": "_subject",
          "type": "string"
        },
        {
          "internalType": "string",
          "name": "_mailDataIPFSHash",
          "type": "string"
        },
        {
          "internalType": "string",
          "name": "_time",
          "type": "string"
        }
      ],
      "name": "sendEmail",
      "outputs": [],
      "stateMutability": "nonpayable",
      "type": "function"
    },
    {
      "inputs": [
        {
          "internalType": "uint256",
          "name": "_id",
          "type": "uint256"
        }
      ],
      "name": "getEmail",
      "outputs": [
        {
          "internalType": "string",
          "name": "",
          "type": "string"
        },
        {
          "internalType": "string",
          "name": "",
          "type": "string"
        },
        {
          "internalType": "string",
          "name": "",
          "type": "string"
        },
        {
          "internalType": "string",
          "name": "",
          "type": "string"
        },
        {
          "internalType": "string",
          "name": "",
          "type": "string"
        }
      ],
      "stateMutability": "view",
      "type": "function",
      "constant": true
    }
  ],
  "bytecode": "0x608060405234801561001057600080fd5b50610f57806100206000396000f3fe608060405234801561001057600080fd5b506004361061004c5760003560e01c8063695a7d491461005157806380af7b1c14610085578063972fe8bc146100a3578063af451cbe146100d7575b600080fd5b61006b6004803603810190610066919061099d565b6100f3565b60405161007c959493929190610a63565b60405180910390f35b61008d6103d1565b60405161009a9190610ae8565b60405180910390f35b6100bd60048036038101906100b8919061099d565b6103d7565b6040516100ce959493929190610a63565b60405180910390f35b6100f160048036038101906100ec9190610c38565b610758565b005b600060205280600052604060002060009150905080600001805461011690610d6e565b80601f016020809104026020016040519081016040528092919081815260200182805461014290610d6e565b801561018f5780601f106101645761010080835404028352916020019161018f565b820191906000526020600020905b81548152906001019060200180831161017257829003601f168201915b5050505050908060010180546101a490610d6e565b80601f01602080910402602001604051908101604052809291908181526020018280546101d090610d6e565b801561021d5780601f106101f25761010080835404028352916020019161021d565b820191906000526020600020905b81548152906001019060200180831161020057829003601f168201915b50505050509080600201805461023290610d6e565b80601f016020809104026020016040519081016040528092919081815260200182805461025e90610d6e565b80156102ab5780601f10610280576101008083540402835291602001916102ab565b820191906000526020600020905b81548152906001019060200180831161028e57829003601f168201915b5050505050908060030180546102c090610d6e565b80601f01602080910402602001604051908101604052809291908181526020018280546102ec90610d6e565b80156103395780601f1061030e57610100808354040283529160200191610339565b820191906000526020600020905b81548152906001019060200180831161031c57829003601f168201915b50505050509080600401805461034e90610d6e565b80601f016020809104026020016040519081016040528092919081815260200182805461037a90610d6e565b80156103c75780601f1061039c576101008083540402835291602001916103c7565b820191906000526020600020905b8154815290600101906020018083116103aa57829003601f168201915b5050505050905085565b60015481565b60608060608060606000861180156103f157506001548611155b610430576040517f08c379a000000000000000000000000000000000000000000000000000000000815260040161042790610deb565b60405180910390fd5b60008060008881526020019081526020016000206040518060a001604052908160008201805461045f90610d6e565b80601f016020809104026020016040519081016040528092919081815260200182805461048b90610d6e565b80156104d85780601f106104ad576101008083540402835291602001916104d8565b820191906000526020600020905b8154815290600101906020018083116104bb57829003601f168201915b505050505081526020016001820180546104f190610d6e565b80601f016020809104026020016040519081016040528092919081815260200182805461051d90610d6e565b801561056a5780601f1061053f5761010080835404028352916020019161056a565b820191906000526020600020905b81548152906001019060200180831161054d57829003601f168201915b5050505050815260200160028201805461058390610d6e565b80601f01602080910402602001604051908101604052809291908181526020018280546105af90610d6e565b80156105fc5780601f106105d1576101008083540402835291602001916105fc565b820191906000526020600020905b8154815290600101906020018083116105df57829003601f168201915b5050505050815260200160038201805461061590610d6e565b80601f016020809104026020016040519081016040528092919081815260200182805461064190610d6e565b801561068e5780601f106106635761010080835404028352916020019161068e565b820191906000526020600020905b81548152906001019060200180831161067157829003601f168201915b505050505081526020016004820180546106a790610d6e565b80601f01602080910402602001604051908101604052809291908181526020018280546106d390610d6e565b80156107205780601f106106f557610100808354040283529160200191610720565b820191906000526020600020905b81548152906001019060200180831161070357829003601f168201915b505050505081525050905080600001518160200151826040015183606001518460800151955095509550955095505091939590929450565b6001600081548092919061076b90610e3a565b91905055506040518060a0016040528086815260200185815260200184815260200183815260200182815250600080600154815260200190815260200160002060008201518160000190805190602001906107c79291906108b0565b5060208201518160010190805190602001906107e49291906108b0565b5060408201518160020190805190602001906108019291906108b0565b50606082015181600301908051906020019061081e9291906108b0565b50608082015181600401908051906020019061083b9291906108b0565b509050508360405161084d9190610ebe565b6040518091039020856040516108639190610ebe565b60405180910390206001547fd14850cd5329c532952355119d13b86c5d344951e760aad16c3e9e4dffecdfba8686866040516108a193929190610ed5565b60405180910390a45050505050565b8280546108bc90610d6e565b90600052602060002090601f0160209004810192826108de5760008555610925565b82601f106108f757805160ff1916838001178555610925565b82800160010185558215610925579182015b82811115610924578251825591602001919060010190610909565b5b5090506109329190610936565b5090565b5b8082111561094f576000816000905550600101610937565b5090565b6000604051905090565b600080fd5b600080fd5b6000819050919050565b61097a81610967565b811461098557600080fd5b50565b60008135905061099781610971565b92915050565b6000602082840312156109b3576109b261095d565b5b60006109c184828501610988565b91505092915050565b600081519050919050565b600082825260208201905092915050565b60005b83811015610a045780820151818401526020810190506109e9565b83811115610a13576000848401525b50505050565b6000601f19601f8301169050919050565b6000610a35826109ca565b610a3f81856109d5565b9350610a4f8185602086016109e6565b610a5881610a19565b840191505092915050565b600060a0820190508181036000830152610a7d8188610a2a565b90508181036020830152610a918187610a2a565b90508181036040830152610aa58186610a2a565b90508181036060830152610ab98185610a2a565b90508181036080830152610acd8184610a2a565b90509695505050505050565b610ae281610967565b82525050565b6000602082019050610afd6000830184610ad9565b92915050565b600080fd5b600080fd5b7f4e487b7100000000000000000000000000000000000000000000000000000000600052604160045260246000fd5b610b4582610a19565b810181811067ffffffffffffffff82111715610b6457610b63610b0d565b5b80604052505050565b6000610b77610953565b9050610b838282610b3c565b919050565b600067ffffffffffffffff821115610ba357610ba2610b0d565b5b610bac82610a19565b9050602081019050919050565b82818337600083830152505050565b6000610bdb610bd684610b88565b610b6d565b905082815260208101848484011115610bf757610bf6610b08565b5b610c02848285610bb9565b509392505050565b600082601f830112610c1f57610c1e610b03565b5b8135610c2f848260208601610bc8565b91505092915050565b600080600080600060a08688031215610c5457610c5361095d565b5b600086013567ffffffffffffffff811115610c7257610c71610962565b5b610c7e88828901610c0a565b955050602086013567ffffffffffffffff811115610c9f57610c9e610962565b5b610cab88828901610c0a565b945050604086013567ffffffffffffffff811115610ccc57610ccb610962565b5b610cd888828901610c0a565b935050606086013567ffffffffffffffff811115610cf957610cf8610962565b5b610d0588828901610c0a565b925050608086013567ffffffffffffffff811115610d2657610d25610962565b5b610d3288828901610c0a565b9150509295509295909350565b7f4e487b7100000000000000000000000000000000000000000000000000000000600052602260045260246000fd5b60006002820490506001821680610d8657607f821691505b602082108103610d9957610d98610d3f565b5b50919050565b7f496e76616c696420656d61696c20494400000000000000000000000000000000600082015250565b6000610dd56010836109d5565b9150610de082610d9f565b602082019050919050565b60006020820190508181036000830152610e0481610dc8565b9050919050565b7f4e487b7100000000000000000000000000000000000000000000000000000000600052601160045260246000fd5b6000610e4582610967565b91507fffffffffffffffffffffffffffffffffffffffffffffffffffffffffffffffff8203610e7757610e76610e0b565b5b600182019050919050565b600081905092915050565b6000610e98826109ca565b610ea28185610e82565b9350610eb28185602086016109e6565b80840191505092915050565b6000610eca8284610e8d565b915081905092915050565b60006060820190508181036000830152610eef8186610a2a565b90508181036020830152610f038185610a2a565b90508181036040830152610f178184610a2a565b905094935050505056fea264697066735822122034df2b10e7c9354e839dd8fa70ebb0a71b06d8b3919a78e9994ef316cab42f2664736f6c634300080d0033",
  "immutableReferences": {},
  "source": "\npragma solidity ^0.8.0;\n\ncontract EmailStorage {\n    struct Email {\n        string sentMail;\n        string receivedMail;\n        string subject;\n        string mailDataIPFSHash;\n        string time;\n    }\n\n    mapping(uint256 => Email) public emails;\n    uint256 public emailCount;\n\n    event EmailSent(uint256 indexed id, string indexed sentMail, string indexed receivedMail, string subject, string mailDataIPFSHash, string time);\n\n    function sendEmail(string memory _sentMail, string memory _receivedMail, string memory _subject, string memory _mailDataIPFSHash, string memory _time) external {\n        emailCount++;\n        emails[emailCount] = Email(_sentMail, _receivedMail, _subject, _mailDataIPFSHash, _time);\n        emit EmailSent(emailCount, _sentMail, _receivedMail, _subject, _mailDataIPFSHash, _time);\n    }\n\n    function getEmail(uint256 _id) external view returns (string memory, string memory, string memory, string memory, string memory) {\n        require(_id > 0 && _id <= emailCount, \"Invalid email ID\");\n        Email memory email = emails[_id];\n        return (email.sentMail, email.receivedMail, email.subject, email.mailDataIPFSHash, email.time);\n    }\n}\n",
  "sourcePath": "/home/venusubash/Documents/clone-new/Reactive-Resume/contracts/EmailStorage.sol",
  "compiler": {
    "name": "solc",
    "version": "0.8.13+commit.abaa5c0e.Emscripten.clang"
  },
  "schemaVersion": "3.4.16",
  "updatedAt": "2024-03-17T16:49:38.262Z",
  "networkType": "ethereum",
  "devdoc": {
    "kind": "dev",
    "methods": {},
    "version": 1
  },
  "userdoc": {
    "kind": "user",
    "methods": {},
    "version": 1
  }
}